:100000000C94CB090C94F3090C94F3090C94F309A8
:100010000C94F3090C94F3090C94F3090C94F30970
:100020000C94F3090C94F3090C940C1C0C947E1C96
:100030000C94F3090C94F3090C94F3090C94F30950
:100040000C94F3090C94DB220C94F3090C94F3093F
:100050000C94F3090C94F3090C94F3090C946421A7
:100060000C94F3090C94F3090C94F3090C94F30920
:100070000C94F3090C94F3090C94F3090C94F30910
:100080000C94EA210C94F3090C94F3090C94F309F1
:100090000C94F3090C94F3090C94F3090C94F309F0
:1000A0000C94F3090C94F3090C94F3091E202120FD
:1000B00010201420182042204220422025202920F0
:1000C0002D203320372042203D20B920BE20C320E0
:1000D000CD20D720212121212121E120EB20F52055
:1000E000FF200C2121211421000000002400270002
:1000F0002A002D003000D5F08D14A1C881CFD9F190
:10010000AF200004080201104080401020408040D1
:10011000800802040180402010020110801020405D
:10012000402000000000250028002B002E00310098
:10013000040404040403040502020202040302028C
:10014000020206060606060604040202020404145D
:10015000021302120215020702080204010C010632
:100160000100292B2B2B2B2B2B2B2B2B272528244A
:100170002B1A1B1C1D1E1F20212223262B2B2B2A52
:100180002B2B000102030405060708090A0B0C0DBE
:100190000E0F101112131415161718192B2B2B2BC9
:1001A0002B2B000102030405060708090A0B0C0D9E
:1001B0000E0F101112131415161718192A0106071D
:1001C000000006070C0006071800060724000607B3
:1001D000300006073C0006074800068754000387E6
:1001E0005A0006075D000707690006077700070742
:1001F00083000707910006079F000607AB0006086B
:10020000B7000607C3000607CF000707DB00060795
:10021000E9000707F50007070301070711010707B2
:100220001F0106072D0106073901040745010607CE
:100230004D0106075901060765010607710106070A
:100240007D0106078901060795010607A1010383C1
:10025000AD010404B0010583B8010505BD010384A7
:10026000C7010405CA012C000301000301010301B9
:10027000020301030301040301050301060301074F
:1002800003010803010903010A03010B03010C0325
:10029000010D03010E03010F0301100301110301FE
:1002A00012030113030114030115030116030117BF
:1002B00003011803011903011A03011B03011C03A5
:1002C000011D03011E03011F03012003012103017E
:1002D000220301230301240301250302260301282D
:1002E00003012903022A03012C03002D000000F959
:1002F000010000F9020000F9030000F9040000F910
:10030000050000F9060000F9070000F9080000F9EF
:10031000090000F90A0000F90B0000F90C0000F9CF
:100320000D0000F90E0000F90F0000F9100000FAAE
:10033000110000F9120000F9130000F9140000F98F
:10034000150000F9160000F9170000F9180000F96F
:10035000190000F91A0000F91B0000F91C0000F94F
:100360001D0000F91E0000F91F0000F9200000F92F
:10037000210000F9220000F9230000F9240000FD0B
:100380002500FFFE240000FD240000FA270000FAEB
:10039000260000FB280000F9240000FD290000FAD7
:1003A000017E3C7F0A7F0A7F3C7F017E007F3E7F8B
:1003B0002A7F2A7F147F4936413E1C7F227F2A777D
:1003C0002A770877007F3E7F227F227F1C7F413E75
:1003D000007F3E7F2A7F2A7F227F0877007F3E7F33
:1003E0000A7F6A1F621F7807413E1C7F227F2A7F97
:1003F0003A7F403F003E08083E00003E004F301765
:10040000782F70207F1E7F403F007F3E7F087F1443
:100410007F227F08777F00007F3E7F207F2F702F15
:10042000700F70007F3E7F047F691E047F3E7F0057
:100430007F007F3E7F047F493E107F3E7F007F41EB
:100440003E1C7F227F227F1C7F413E007F3E7F0A31
:100450007F6A1F6C1F710EC13E9C7F22FF62FF1CD2
:10046000FFC13E007F3E7F0A7F1A7F2C7F017E0105
:100470007E2C7F2A7F2A7F1A7F403F78077A0702E7
:100480007F3E7F027F7A077807403F1E7F207F20D4
:100490007F1E7F403F601F4E3F107F2778107F4EAA
:1004A0003F601F403F1E7F207F3B7C207F1E7F40A0
:1004B0003F0877227F147F691E147F227F08777898
:1004C00007720F047F397E047F720F780708773236
:1004D0007F2A7F2A7F267F007F413E1E7F227F2248
:1004E0007F3C7F413E7807027F3E7F007F08773266
:1004F0007F2A7F2A7F247F017E0877227F2A7F2A16
:100500007F3E7F413E601F6E1F681F087F3E7F0059
:100510007F007F2E7F2A7F2A7F1A7F403F413E1C2B
:100520007F2A7F2A7F3A7F403F700F760F720F023B
:100530007F3E7F007F413E167F2A7F2A7F347F41A6
:100540003E017E2E7F2A7F2A7F3C7F413E000200B3
:10055000030C040F0A0708070002020200110E0430
:100560001F0E1F041F110E000600001F0E1F150E88
:100570001B04150217130000100F8A000B0ACA0093
:100580001906F6001D0828011908620111089401D6
:100590000905B6010505C8010505D201070BDC01F7
:1005A0001405F801140420020A0B4802050B70021E
:1005B000020B840205078C02108D96020C88B6028D
:1005C0001190C2020C84E402050005050304000337
:1005D000040403010803010903050A03030F0303CD
:1005E0001203051503041A03051E03002FF7030069
:1005F000230203010309030105EF03011FFE0300AA
:1006000002F403030408030229F11000FBFD1001AA
:1006100000FD1100150A1200161712001C1D130010
:1006200025081400090A0000DCF70200FBFB0100AA
:100630000FF90000DCF70200FBFB00010DF70400DE
:10064000DDFC060005F907000901080017FC090098
:1006500012020500DFFC0C0003040B0007FF0A0078
:100660000CF80D00F3FB0E0303FB0E00FEFB0F0165
:100670000BFB0F0009FBE0E010F008F804FC02FEA1
:1006800001FF01FF01FF41FFA1FFE1FFE1FFE1FFEA
:10069000E1FF41FFC1FF42FEC4FCC8F8F0F0C0C05A
:1006A000000000001F1F203F487F93FF25FF29FF08
:1006B00029FF29FF2AFF2CFF21FF03FF07FF0FFF60
:1006C0000FFF1EFF1DFF1AFF1DFF9BFF9FFF1FFF58
:1006D000FCFC00000000000000000101010101011C
:1006E00001010203020302030203020302030203E5
:1006F00002030407040704070407050704070303AC
:10070000F0F008F8F4FC12FEF1FFF1FFB1FFF1FF89
:1007100011FFF1FF91FF52FEF4FC08F8F0F0606069
:100720000707080F131F223F437F5B7F527F437FE2
:100730004A7F5B7F427F233F131F080F0707030396
:10074000003F1E7F20FF40F020FF1EFF60FFA0F053
:1007500020F020F0007000000000000301030103FE
:100760000103010300030001000000000101010179
:100770000101010101012121212121212121212129
:10078000212121212121212121212020202020205F
:100790002020202020202020202020202020003861
:1007A000387C7CFE7EFF4EFF4AFF4AFF02FF70FE50
:1007B0007CFE3EFF367F32FF7EFF78FE00FC4CFE63
:1007C0004EFF4AFF7AFF3AFF30FE06FF4EFF5CFF06
:1007D00058FF7EFFBE7F003E007E7EFF7EFF18FF3B
:1007E0007EFF7EFF00FF7EFF7EFF1AFF7EFF7EFF03
:1007F00000FF7EFF7EFF1AFF7AFF6EFF00FF7EFF85
:100800007EFF42FF7EFF3C7E003C000C0C1E0C1E57
:100810000C1E0E1F163F367F66FFC6EF80C640E0F7
:10082000E0F0E0F070F8307810380010000C0C1F89
:100830000F1F0E1F0D1F0D1F0E1F010F0001000EB9
:10084000041F0E1F041F000E000E041F041F041FB0
:10085000000E001C1C3E3AFFBEFF3EFF1C3E001C6B
:10086000000000000007070700070000000000105C
:100870001018181C1C1E161F121F101A1018181CF6
:100880001C1E161F121F101A1018181C0C1E060F03
:1008900002070002000000000004040E060F030718
:1008A000010300010005040F060F03070103000107
:1008B000000100010001000100010001000000FC36
:1008C000FCFEFEFF0EFF068F06EF46EFC6EFC6EFFB
:1008D00000EF0001010303070307030703070307F2
:1008E00003070307000300FCFCFEFEFF0EFF068F5C
:1008F00000010103030703070307007F3E7F000792
:100900000207007F3E7F1C3E081C000809090909F8
:1009100009090909090911E1020408F01804020291
:10092000121212121212111008040201010204081C
:100930001122448890A0C080010305090909090912
:100940002959810121518905030080C0A090909010
:100950009090909089864020110E010305090909A5
:1009600009090909090928091E0A00000707780072
:1009700007078600070794000707A2000D07B000CD
:100980000302CA000302D0000503D6002207E000DC
:1009900020042401048464010584680105846D0138
:1009A000058472010584770105847C010584810139
:1009B0000584860105848B01058490010A03950155
:1009C0000909A9010305CD010409D3010808E301C0
:1009D0000887F3010887FB010887030208870B02D9
:1009E0000887130208871B0206042302110F2F0237
:1009F0000505730205857D02068B8202068B8E0239
:100A000007859A020909A102010006010707040EE1
:100A100005120A170921022A042C0A02000A0102FF
:100A20000A01030301040A01050A01060A01070A73
:100A300001080A01090A010A0A010B0A010C0A014C
:100A40000D0A010E16020F160211210413210417BC
:100A500003011B03011C03011D03011E03011F03EE
:100A600001200301210301220301230301240301C7
:100A70002503012603012703012803012903012A75
:100A800003012B03012C03012D03012E03012F036E
:100A9000013003013103043203063603013C96069C
:100AA0003D64064364064903074F0000D5F4050082
:100AB000F3F70100FDF90200FDF90102FDF9030061
:100AC000FDF90400FDF90301FDF90600EEF707004A
:100AD000ECF60800E8F50800E6F50800E4F5080083
:100AE000E0F50800DFF51700F3F51701F7F5180139
:100AF000F8F31800F1F31903F7F81901F7EF1902E9
:100B0000EDF81900EDEF1903F9FA1901F9ED1902E1
:100B1000ECFA1900ECED090000FA0A0001FB1500DF
:100B200018F6160000F7270000F71400FBFC0B0076
:100B3000FCFC0C00FBFC0D00FBFC0E00FBFC0F00A2
:100B4000FBFC1000FBFC1100FBFC1200FBFC130083
:100B5000FBFC1A00FCFD1B00FCFD1C00FCFD1D0045
:100B6000FCFD1E00FCFD1F00FCFD2000FDF8200226
:100B7000FD052300FBFC230100FC2302FB002303F3
:100B800000002100F8F80B00F8F30C00F8080D0045
:100B9000FEF30E00FE080F0004F32200FEFD250008
:100BA000F0ED2503F5ED2500FBED250300ED250017
:100BB00006ED25030BED2500FBED250300ED2500DB
:100BC00006ED25030BED2400F0ED2401F5ED2500E5
:100BD00006ED25030BED2400F0ED2401F5ED2400D6
:100BE000FBED240100ED2400F0ED2401F5ED2400DF
:100BF000FBED240100ED240006ED24010BED2600A1
:100C000008F0707098F818F81CFC1CFC1CFC1CFC0C
:100C10001EFE1AFE16FE1EFE3FFFD9FF11FF11FF3A
:100C200017FFF9FF11FF11FF11FF11FF11FF12FE56
:100C300012FE12FE14FC14FC14FCC8F828F8000084
:100C4000000001010203020300030003000300038C
:100C5000000302030203030302030203030302036C
:100C6000020302030203020302030203020302035C
:100C7000020302030303020302031C1C263E5F7FE0
:100C8000777F7D7F323E1C1C1C1C223E7F7F777F3E
:100C90007F7F223E1C1C1C1C3A3E7D7F557F5F7F60
:100CA0002E3E1C1C1C1C3E3E5D7F557F5D7F3E3EE4
:100CB0001C1C037F017F017F017F027E027E027E7A
:100CC000447C447C487848785070606001010000A2
:100CD00001010101030302020101020205050202F2
:100CE000040410102838243C243C243C243C243C9C
:100CF000243C243C243C243C243C243C243C243CF4
:100D0000243C243C243C243C243C243C243C243CE3
:100D1000223E213F213F213F213F213F213F213FD3
:100D2000213F191F070708080C0C0C0C0C0C0C0CAD
:100D30000C0C0C0C0C0C0C0C0C0C0C0C0C0C0C0CF3
:100D40000C0C0C0C0C0C0C0C0C0C0C0C0C0C0C0CE3
:100D50000C0C0E0E0F0F0F0F0F0F0F0F0F0F0F0FAB
:100D60000F0F0F0F030300030F000D0D0F0B0009F2
:100D70000D0F0F0006050F0F000B0F0D0D000F0FCD
:100D80000D0D0001010F0F000F0D0D0F000B0B0FCC
:100D90000F000F0B090F00070702020505000007EF
:100DA00007030300000707020207073838447C8264
:100DB000FE01FF5DFF01FF82FE447C383800000029
:100DC0000000000101010101010000000000000A13
:100DD0000E00111111103845450082828200000179
:100DE000010000000088A800001094406014150065
:100DF00008080A0109003E3E0C183E3C00000000B5
:100E00000C3E3E0000002232322E2E2C0000222208
:100E10002A3E3E3C00000E1E18183E3C00002E2EBE
:100E20002E3A3A1A00000C040E060F060F040E00AC
:100E30000C00FEFCFF02FF7CFF40FE40E040FE7C19
:100E4000FF02FF7CFF40FE40E040FE7CFF02FFFC13
:100E5000FF00FE003F1F7F207F1F7F013F01030136
:100E60003F1F7F207F1F7F013F010301030103011B
:100E70000300030001000E0E1F0A1F0E1F000E1EAE
:100E80001F1F1F1F00F8FCFEFEFE000001030303EE
:100E900000A854AA54AA000001020102110E061F64
:100EA000100E01FF38FF7CFFFEFFFFA3FFFFFFFFD7
:100EB000FEFF7CFF3801000100010001010101017A
:100EC0000101000100010010010E9700000A932AA1
:100ED000000B95480007936900068F7E000F918AEA
:100EE00000178CB7000308E5000819EB00070C2B6E
:100EF00001120E4701110A8F010B03D3010A02E907
:100F0000010F04FD0106061B020400030200030C8E
:100F10000203100E03101E0000F2E9000100E903B5
:100F20000044ED0300DBED03014AED0301E2ED01B6
:100F300000FDED0600A8F40700B9EC010021ED0F5B
:100F400000FCE70F0102E70D0021EB0E0043EA026F
:100F500001CBEB0100A8ED040011F1040117F1052C
:100F60000033EF020054EB0200EFEB0201DDEB0E69
:100F70000033EB0F0117EB0F0011EB0C00CBE80D6A
:100F800000A8EB0C01EFE80C01DDE80C0054E809C7
:100F90000046D40A0002D90901FCDA0B0002E00B7A
:100FA00001F2E00A0047D80A0136D70B0047DF0BF1
:100FB0000137DE0800FEE80A01A5D70900B5DA0B03
:100FC00000B6DF0B01A6DE0800B2E7080144E70027
:100FD00000C0E0F0F8FCFCFEFEFFFFFFFFBCBFBF5F
:100FE000BFBFBFBFBFBFBFBFBFBFBF010D0D4D4D17
:100FF0004D4D4D4D4D4D4D4D4DFF00540054540041
:101000005400FFFF0055005555005500FF07000133
:1010100000010100010007FF002800A200AA00A2B1
:1010200000FFFF002A008A00A800A800FF1F000A96
:10103000000200080008001FFF015545010155FF8F
:1010400000554400005507000100000001FF006644
:101050000066007F0006000600FF00121200828278
:1010600000929200929200FFFF00242400242400AA
:10107000242400202000FF010000000000000000E8
:10108000000000000001FF0155555501555555015F
:10109000555555015555550154555501FF0F000043
:1010A0000000000000000000000000000000000040
:1010B0000000000FF0F00FFFF0F00000001E143FE2
:1010C0000AFFF4FF0AFF143F001E0000008080FCAE
:1010D000ECFF5FFF007F0000000000FCF4FF6FFFEB
:1010E000EFFF00FF0000000000000001000101010F
:1010F00000010001000000000000000000C0C0F876
:10110000387E0E1F1C1F001E000E0E0F0103000074
:10111000000000000000000000C0C0E000F0E0F8A7
:1011200008FCF0FC043E787E061F383F061F383F5F
:10113000061F787E043EF8FC00F8003C3C3F0303A9
:10114000000101010000000000000000000000009C
:10115000000000000000000000000000000000008F
:1011600000C080F07078007C787E063F787F061F94
:10117000383F061F787F043E787E00FCF0F800F0D0
:101180000003030301030000000000000000000052
:10119000000000000000000000000000000001014D
:1011A0000001040404040404040404040404070700
:1011B00007070707040404040000020202020202F7
:1011C00002020202030303030202000000000808F7
:1011D0000808060E010F050F010F050F010F050F7F
:1011E000010F060E080808080000000020202F2F1D
:1011F000292F393F292F000001010101000000FFC4
:10120000FFFF0038074810781F682C48358045409C
:101210004D58586865386C3873387AC893800240E6
:1012200043402860A84821390008040C020A060E31
:101230000109050D030B070FE2008B01C401E0015A
:10124000F401080226024402000000002109000007
:10125000A60600006E04000082030000E302000006
:10126000080B000202020100090400000102020052
:1012700000052400100105240101010424020605D3
:101280002406000107058103100040090401000243
:101290000A00000007050202400000070583024023
:1012A00000000403090412010002EF02014041237F
:1012B000368000010102030141726475696E6F207E
:1012C0004C4C430041726475626F790003015265B2
:1012D00073746172744D61696E204D656E754765FA
:1012E0006172626F782062757374656421456E6700
:1012F000696E6520626C6F776E21596F75206C6F17
:10130000737421537072696E7420636F6D706C65B5
:10131000746521596F7520776F6E21426573742053
:1013200074696D653A204E6577207265636F7264EB
:101330002121215261646963616C526163696E6746
:101340003A526976616C72794372656174656420A2
:101350006279204E2D4B30643352202D20323031B3
:1013600038507265737320616E7920627574746F82
:101370006E0000000200090F0000030401000C00D1
:10138000000000000000000000000000000000005D
:10139000193C324B583211241FBECFEFDAE0DEBFCA
:1013A000CDBF11E0A0E0B1E0ECE7FEE602C00590A1
:1013B0000D92A43AB107D9F727E0A4EAB1E001C041
:1013C0001D92A931B207E1F719E0CBECD9E004C0D6
:1013D0002197FE010E94B334CA3CD107C9F70E948D
:1013E000F8290C943C370C940000CF93DF93FC0158
:1013F0001282138214821582EB0188819981AA815D
:10140000BB8186839783A087B187288139814A81F0
:101410005B81A2E1B0E00E943734735D7687158A64
:10142000168A178A108E118E128E138E148E158EB8
:10143000168E178E10A2128A11A212A213A214A243
:10144000148A15A281E086A3138A2BE232E031AB25
:1014500020AB30A727A314A632AF21AF16AE86ABC0
:1014600017AA10AE13AA12AA84AB85ABDF91CF9155
:10147000089508950895FC01662311F141A152A138
:1014800063A174A14F3F51056105710509F0E4F4B2
:10149000475E5F4F6F4F7F4F413081E058076105D6
:1014A00071052CF441A352A363A374A3089580E0B3
:1014B00091E0A0E0B0E081A392A3A3A3B4A3089518
:1014C00011A212A213A214A208954F925F926F92DA
:1014D0007F928F929F92AF92BF92CF92DF92EF92C4
:1014E000FF920F931F93CF93DF932C01E901C61B4B
:1014F000D70BC801841B950B6E01D7FF04C0CC2409
:10150000DD24CC1ADD0AFC0197FF04C0EE27FF277B
:10151000E81BF90B209729F0D7FD06C0C1E0D0E009
:1015200005C0C0E0D0E002C0CFEFDFEF009729F0A8
:1015300097FD06C081E090E005C080E090E002C029
:101540008FEF9FEF7F01EE0CFF1C5601AA0CBB1C16
:10155000EC15FD05E4F587010C191D098824839419
:10156000912C6A01DD24E3E0D594C794EA95E1F774
:10157000D2011E967C901E977C9CF0017D9CF00D04
:101580001124E60FF11D1C96CD90DC901D97DF0114
:10159000AC0DBD1DE42FE770DE2EF40102C0EE0F8E
:1015A000FF1FDA94E2F76F01DC90CD28CC9262172E
:1015B000730709F448C01016110624F4480F591F88
:1015C0000A191B090E0D1F1D6C0F7D1FCACF950137
:1015D0002E1B3F0BF90188248394912C6A01DD2492
:1015E00023E0D594C7942A95E1F7D2011E967C900A
:1015F0001E977C9C90017D9C300D1124260F311D7F
:101600001C96CD90DC901D9739016C0C7D1CB42F7D
:10161000B770940102C0220F331FBA95E2F7690137
:10162000D301DC90CD28CC924017510761F01E16F3
:101630001F0624F46C0F7D1FEE19FF09EA0DFB1D38
:10164000480F591FCBCFDF91CF911F910F91FF9082
:10165000EF90DF90CF90BF90AF909F908F907F9052
:101660006F905F904F9008950F931F93CF93DF93E8
:10167000DC01822F90E033E0959587953A95E1F76C
:101680001E963C911E97389FF001399FF00D112452
:10169000E40FF11D922F97702FEF30E0A901092E72
:1016A00001C0440F0A94EAF770E01C96CD91DC91DA
:1016B0001D97CE0FDF1F542F5095888185238B01F6
:1016C000092E01C0000F0A94EAF74023482B4883F3
:1016D0009923F9F088E0891B082E02C035952795DB
:1016E0000A94E2F71E969C911E97E90FF11D1C9635
:1016F0004D915C911D97E40FF51F322F309590812D
:10170000932302C0759567958A95E2F72623292BC6
:101710002083DF91CF911F910F910895CF92DF9297
:10172000FF920F931F93CF93DF9300D000D01F92AF
:10173000CDB7DEB7DC011596FC90FF2009F47EC022
:101740006B018C01FC0186810190F081E02D2681E6
:101750009781622F792F680F711D680F711D42E00C
:1017600050E0CE0104960E94F933D801ED91FC912E
:1017700011978D8117962C9130E0280F311DB901FA
:10178000660F771F260F371F60857185620F731FE5
:1017900043E050E0CE0101960E94F9338981BAE01E
:1017A0008B9FC0011124F80162817381C60ED71E80
:1017B000D382C282F8012281338182179307F0F528
:1017C000281B390BD80113963C932E93129717962A
:1017D0002C911797422F50E08C8190E00197481789
:1017E000590724F42F5F17962C9309C0F8018481C0
:1017F000882311F0178203C01582F12C1FC0D80175
:10180000ED91FC9111978D8117966C9170E0680FA6
:10181000711DCB01880F991F680F791F80859185F5
:10182000680F791F43E050E0CE0101960E94F93322
:101830008981BAE08B9FC0011124BCCF8F2D0F90FE
:101840000F900F900F900F90DF91CF911F910F91FC
:10185000FF90DF90CF9008952F923F924F925F922A
:101860006F927F928F929F92AF92BF92CF92DF92B0
:10187000EF92FF920F931F93CF93DF93CDB7DEB715
:1018800066970FB6F894DEBF0FBECDBF4C013B018B
:10189000FC01F289FE8B1F163CF4FC0185A181112D
:1018A00003C0F6A1FD8B01C01D8A198A1A8A1B8A02
:1018B0001C8A1301072C000C44085508B42DA32DD5
:1018C000922D88278D879E87AF87B88BF401258D51
:1018D000368D478D50A1ACE3B0E00E9437346B01E8
:1018E0007C01FF0CCC08DC2C76019B01AC016C2D3B
:1018F0007C2D8C2D9C2D08E00E94CA35E7EEAE2E83
:10190000BB24B394C12CD12CE12CF12C00E010E0CD
:101910000E94F534F401218F328F438F548FFD895B
:10192000FF2309F4D4C02E8944E02402B00111241D
:10193000685B7D4E44E050E0CE0101960E94F93391
:10194000B401675E7F4FCE0101960E94A2290981F2
:101950001A812B813C81F401058B168B278B308FEC
:1019600000270130F0E41F07FFE12F0731050CF0DD
:1019700057C0011548EE140743E02407310524F44D
:1019800000E018EE23E030E0012F122F232F332741
:1019900027FD3A95C80168EE73E00E949F34FB0171
:1019A000EE0FFF1FE85CFD4EC590D4900D2C000C8F
:1019B000EE08FF08FE2CED2CDC2CCC2463307105E6
:1019C00091F188E19CEF689FD001699FB00D789FED
:1019D000B00D1124A00FB11F109729F1FB01EE0FDC
:1019E000FF1FE65CFD4E25913491A901330F660B74
:1019F000770B762F652F542F44279A01AB012C19B2
:101A00003D094E095F090E94423428EE33E040E070
:101A100050E00E941834C20ED31EE41EF51E03C00F
:101A2000C12CD12C7601C98ADA8AEB8AFC8AF401AE
:101A30006289F4E06F02B0011124685B7D4E44E0DE
:101A400050E0CE0101960E94F933F40181A192A1E8
:101A5000A3A1B4A189879A87AB87BC87BE016F5EBB
:101A60007F4FCE0109960E94A22989859A85AB8570
:101A7000BC858D839E83AF83B887BE016F5F7F4F28
:101A8000CE0105960E94A2298D819E81AF81B885E5
:101A90006C017D01FF0CCC08DC2C76019C01AD01B2
:101AA0006C2D7C2D8C2D9C2D08E00E94CA35EDE418
:101AB000AE2EB12CC12CD12CE12CF12C00E010E089
:101AC0000E94F534C22ED32EE42EF52E67C0F40109
:101AD00081A192A1A3A1B4A1181619061A061B068A
:101AE000F4F489839A83AB83BC8362E371E0CE0113
:101AF00001960E94A22969817A818B819C81A20131
:101B000091010E947B34F401058916892789308D63
:101B1000DC01CB01800F911FA21FB31F12C0F40183
:101B200085899689A789B08DB201A1011CE0440F77
:101B3000551F661F771F1A95D1F7841B950BA60BAF
:101B4000B70B858B968BA78BB08FF401858996890F
:101B5000A789B08D8115984EA340B1054CF480E063
:101B600098EEA3E0B0E0F401858B968BA78BB08F45
:101B7000F40185899689A789B08D81309044AF4161
:101B8000B1054CF080E090E4AFE1B0E0F401858B6A
:101B9000968BA78BB08FC12CD12C7601F401858D4B
:101BA000968DA78DB0A189839A83AB83BC83B40142
:101BB000635E7F4FCE0101960E94A22929813A815E
:101BC0004B815C81A6EEBFEF0E94453424E630E0F5
:101BD00040E050E00E941834DA01C9019855A24053
:101BE000B1098C0D9D1DAE1DBF1D6C017D01FF0C4B
:101BF000CC08DC2C76019C01AD016C2D7C2D8C2D4C
:101C00009C2D08E00E94CA35A12C02EDB02EE5E023
:101C1000CE2ED12CE12CF12C00E010E00E94F53406
:101C200029833A834B835C83BE01635F7F4FCE0180
:101C300001960E94A22969817A818B819C8128EE7C
:101C400033E040E050E00E941834F401858D968D19
:101C5000A78DB0A1820F931FA41FB51F858F968FEC
:101C6000A78FB0A3B7FF04C0158E168E178E10A2D3
:101C7000F40186A18823E1F185899689A789B08D31
:101C80008130F0E49F07FFE1AF07B10584F0F40174
:101C900016A283E087AFE05CFF4F1082319610827E
:101CA000F40114AE13AE15AE81E086AF21C0892FCA
:101CB0009A2FAB2FBB27A7FDBA95F4012289022EDC
:101CC000000C330B3595279541A152A163A174A156
:101CD00014161506160617062CF4883EFCE19F071D
:101CE00008F0BEC0883E9C4108F0A7C0F401148AE9
:101CF000F401858D968DA78DB0A189839A83AB83DE
:101D0000BC83BE01635F7F4FCE0101960E94A22972
:101D100069817A818B819C8128EE33E040E050E03C
:101D20000E941834F40182819381A481B581820FCD
:101D3000931FA41FB51F82839383A483B583618DF2
:101D4000728D838D948DA20191010E947B342DE7C9
:101D500030E040E050E00E941834BB2757FDBA95B0
:101D6000A52F942F832FBC01893C910514F068ECBA
:101D700070E0C401C0960E948E0BF40182819381B1
:101D8000A481B581692F7A2F8B2F992787FD9A958A
:101D90002AEF30E040E050E00E941834F4018389DB
:101DA000821751F082E085A716A617A612A611A6E3
:101DB00013A681E084A7238BF401258D368D478DF2
:101DC00050A1A4E2B0E00E9437342AE030E040E0C5
:101DD00050E00E941834C201B1010E947B3428E710
:101DE00030E040E050E00E941834992757FD9A9562
:101DF000852F742F632FC40187960E948E0BB30129
:101E0000C401C9960E948E0B66960FB6F894DEBF89
:101E10000FBECDBFDF91CF911F910F91FF90EF903B
:101E2000DF90CF90BF90AF909F908F907F906F90FA
:101E30005F904F903F902F90089593E0921BF40194
:101E40008489492F50E0282F082E000C330B4217AD
:101E5000530714F4891B02C081E0F401848B48CF3E
:101E6000F40164896F5F260F885E9C4164E670E030
:101E70000E948B34620F648B65320CF439CF07CF2C
:101E80002F923F924F925F926F927F928F929F928A
:101E9000AF92BF92CF92DF92EF92FF920F931F9378
:101EA000CF93DF93CDB7DEB7A4970FB6F894DEBF1C
:101EB0000FBECDBF998B888B7F876E871B8F0A8F54
:101EC000FD8EEC8EDC0116969C91169717968C91E0
:101ED000692F782F640F711D640F711D42E050E06F
:101EE000CE010C962AA30E94F9338D852AA130E0F9
:101EF000280F311DB901660F771F260F371FE8899C
:101F0000F98960857185620F731F43E050E0CE014F
:101F100009960E94F933412C512C2C2D217028A3B5
:101F20003C2D327039A38A8590E0481659060CF092
:101F30002DC28B85B201680F711D660F771F660F6A
:101F4000771FA889B9891A968D919C911B97680F64
:101F5000791F44E050E0CE0105960E94F9334F818D
:101F6000042F440F110B2885C22E220FDD08FE809E
:101F70008D81E889F98964817581F4E08F9F600D16
:101F8000711D112444E050E0CE0101960E94F93306
:101F9000998128A1222359F044275527401B510B32
:101FA000491B51098A010F5F1F4F81E0F826EA8023
:101FB0008E2D8F7739A1332361F0222733272C19F7
:101FC0003D09281B310969014FEFC41AD40A22E0E8
:101FD000F2262C8D3D8D2C0D3D1D4A8D5B8D400FC5
:101FE000511FA889B98912960D90BC91A02DBC8B68
:101FF000AB8BEB81FC81FE8BED8B882E912C692EB7
:10200000712CBA01660D771D61507109AE85BF85CF
:102010000D911C911197601771070CF46AC0189606
:10202000AD90BC901997A416B5060CF462C0D90106
:10203000A80DB91DFD013197F98FE88FAE85BF85D9
:102040001296ED91FC911397A88DB98DAE17BF072D
:102050000CF44FC0AE85BF851A96CD90DC901B97CF
:10206000C216D3060CF445C04017510764F4BA01F8
:10207000601B710B1301260E371EB801620D731D14
:102080006150710902C013018A01A616B70624F433
:10209000A61AB70A2A0C3B1C2E173F076CF4B9018D
:1020A0006E1B7F0B680D791D5F01A60EB71ED50153
:1020B0001197B98FA88F02C0B401F901A88DB98D0D
:1020C000CA16DB0624F4CA1ADB0A6C0D7D1D211426
:1020D000310479F06115710561F0D801A41BB50BCD
:1020E000AD01DF01A21BB30B9D0157FD02C037FFFD
:1020F00004C0FFEF4F1A5F0A16CFAE2DA078AF29AC
:10210000D22C7E2FBA2FB170CB2EA1FBBB27B0F9FA
:10211000BF8BAA1FAA27AA1FAA8BAA2319F0E92EF0
:10212000F12C03C07301EE0CFF1CFF27B3E0F59503
:10213000E795BA95E1F7AE85BF851E969C919E9F67
:10214000D0019F9FB00D11245D01A00EB11C7770CE
:10215000BA89B11102C092E001C091E01FEF190FDE
:10216000F901FF27AF89A1110FC0A3E0F595E7950D
:10217000AA95E1F7EE9ED001EF9EB00DFE9EB00D48
:102180001124F98EE88E1BC08E1A9F0AB1E08B1ABB
:10219000910833E0959487943A95E1F7E89CD00153
:1021A000E99CB00DF89CB00D1124EE27FF27EE1925
:1021B000FF09F98FE88F8150821B282F2095277007
:1021C000C11010C0552702C0440F551F1A95E2F7E1
:1021D000A40FB51F80E08B889C884D895E89840E92
:1021E000951E5DC0ED2CDD0CFF08F7013197012E27
:1021F00001C0EE0F0A94EAF78E2F91954111EBCFB3
:102200006E187F0802C0660C771C1A95E2F7A60DBF
:10221000B71DE1CFF72EF21A48E0271708F043C0A8
:10222000471BE62F062E000CFF0B50E0E417F507C6
:102230000CF4AF01E42ECC24CA94022E01C0CC0CC5
:102240000A94EAF738E0321B341BEFEFF0E002C0EB
:10225000F595E7953A95E2F7EB8BD82E85013A2D67
:10226000320D3D8BFA01E20FF11DFF8FEE8F7F2CB7
:1022700071943D89301B1316C4F06E192E0D7E0D1E
:10228000283028F0288D398DA20FB31F20E0783038
:1022900030F0EE85FF853685A30EB11C70E0161672
:1022A0000CF4B8CF26CF421BBCCFED2DF0E03A891D
:1022B000EA0FFB1FE80DF91D332319F034914FEF9E
:1022C00004C045915491342F452F5F89552321F146
:1022D000E32FEF70F0E0E85DFD4E649032953F70C3
:1022E000E32FF0E0E85DFD4E349150E1659EF00192
:1022F00011243E2BE42FEF70F0E0E85DFD4E549189
:1023000042954F70E42FF0E0E85DFD4EE491F0E17E
:102310005F9FA00111244E2B4C21EE8DFF8D38972D
:1023200014F45B8945231F145CF40F2C01C0330F98
:102330000A94EAF70F2C01C0440F0A94EAF712C07E
:10234000FF2081F0E32FF0E0072C02C0F595E79520
:102350000A94E2F73E2F50E0072C02C055954795AE
:102360000A94E2F7EE85FF850484F585E02DFCA351
:10237000EBA3E00FF11F642E6094508156213423AB
:10238000532B50830F5F1F4FD90E73CFA4960FB6F8
:10239000F894DEBF0FBECDBFDF91CF911F910F919B
:1023A000FF90EF90DF90CF90BF90AF909F908F9075
:1023B0007F906F905F904F903F902F9008952F9255
:1023C0003F924F925F926F927F928F929F92AF92C5
:1023D000BF92CF92DF92EF92FF920F931F93CF9312
:1023E000DF93CDB7DEB727970FB6F894DEBF0FBEE9
:1023F000CDBF9F838E833B0159012801DE2C4A010A
:1024000043ED51E08A017401212C312C80E2840FCC
:1024100089832C2DCC0C330BF70181917F01811125
:1024200004C08D2D867099F538C0F981F017C9F375
:10243000AE81BF8152969C915297891B1E969C91AA
:102440001E978917D0F41C96ED91FC911D97E80F0B
:10245000F11D64911F968C911F97681771F0CD0143
:102460002C833D834A835B830E947C152C813D81B4
:10247000620F731F4A815B8104C0EE81FF81608916
:1024800070E0D8016D938D01260E371EC5CFD1FEA9
:1024900002C035942794A218B308D4FE0AC0AE81B6
:1024A000BF8151968C9190E095958795480E591E65
:1024B00007C0D3FE05C0EE81FF818189480E511C03
:1024C00083ED282E81E0382E90E2D92ED40ED4014F
:1024D0008D914D01882339F1D21429F1AE81BF814C
:1024E00052969C915297891B1E969C911E97891714
:1024F000A0F41C96ED91FC911D97E80FF11D24911D
:102500001F968C911F97281741F0C12C72018501ED
:1025100040E0B301CD010E94400FF10181911F0104
:10252000A80EB11CD4CF27960FB6F894DEBF0FBE0D
:10253000CDBFDF91CF911F910F91FF90EF90DF9072
:10254000CF90BF90AF909F908F907F906F905F9053
:102550004F903F902F900895CF92EF92FF920F935C
:102560001F93FC01C08479018A0127814681808103
:1025700091810E94400F1F910F91FF90EF90CF909B
:102580000895AF92BF92CF92EF92FF920F931F9355
:10259000CF93DF93EC015B01EE84F12C0A851B8560
:1025A000C12C20E040E08BE292E00E94400F8E01BF
:1025B000005D1F4F2E8530E04A855B8542525109F0
:1025C000B501C8010E94AC122E8530E04A855B85BA
:1025D0004A505109B501C8010E94AC128CA588234C
:1025E00049F02E8530E04A855B85B501CE0187969E
:1025F0000E94AC128EAD882391F02E8530E04A8582
:102600005B85B501CE01C996DF91CF911F910F91E6
:10261000FF90EF90CF90BF90AF900C94AC12DF91F1
:10262000CF911F910F91FF90EF90CF90BF90AF90FF
:1026300008959F92AF92BF92CF92DF92EF92FF9256
:102640000F931F93CF93DF9300D000D01F92CDB78D
:10265000DEB78C01FB018491F80180837B01F2E0FD
:10266000EF0EF11CFB0131966491F8016183F58254
:10267000E482F4E08F9FE00CF11C1124F801F78252
:10268000E682E60EF11CE60EF11CF186E086A12C36
:10269000B12CC12CD12CF801818190E0A816B9068B
:1026A000ACF4C501880F991FF80166817781680F26
:1026B000791F42E050E0CE0101960E94F9338981F2
:1026C000C80ED11CFFEFAF1ABF0AE5CFC601880FB5
:1026D000991FC80ED91EEC0CFD1CF386E286A12CB6
:1026E000B12CC12CD12CF801818190E0A816B9063B
:1026F00084F5F80166817781C501880F991F680FFD
:10270000791F42E050E0CE0104960E94F933912CEB
:102710008C819816D0F48D81692D70E0680F711D41
:10272000CB01880F991F680F791FF801808591856B
:10273000680F791F43E050E0CE0101960E94F93303
:102740008A81C80ED11C9394E3CFFFEFAF1ABF0A62
:10275000CACFCC0CDD1CCC0CDD1CEC0CFD1CF382B8
:10276000E2820F900F900F900F900F90DF91CF911A
:102770001F910F91FF90EF90DF90CF90BF90AF909F
:102780009F900895CF93DF93DC01FA0140E050E081
:1027900021E030E08AE04E175F0749F0E9018C9FA5
:1027A00090018D9F300D11244F5F5F4FF4CFC90111
:1027B0000197A817B90708F4CD01EB0121962AE08B
:1027C00030E0319738F0B9010E948B34805D8A93F4
:1027D000CB01F7CFDF91CF9108958F929F92AF9267
:1027E000BF92CF92DF92EF92FF920F931F93CF93FE
:1027F000DF936B017C01EA01022FDC01CB0188270A
:10280000B7FD83959927AA27BB27182F882341F066
:10281000F094E094D094C094C11CD11CE11CF11C34
:10282000C701B60128EE33E040E050E00E941834C2
:1028300049015A0128EE33E0289DC001299D900DE1
:10284000389D900D1124C81AD90AC4016CE370E0B8
:102850000E948B34CB014CE3469F9001479F300D83
:102860001124821A930A002339F0112311F02DE26A
:1028700001C02BE228832196BE016F5F7F4F42E0AB
:1028800050E00E94C2138AE38A83BE016C5F7F4FCF
:1028900042E050E0C4010E94C2138EE28D83BE016B
:1028A000685F7F4F43E050E0C6010E94C213198663
:1028B000DF91CF911F910F91FF90EF90DF90CF901C
:1028C000BF90AF909F908F9008952091C801309154
:1028D000C9012817390709F44CC082309105D9F095
:1028E0008430910509F041C02EE132E13093F601C8
:1028F0002093F50122E02093F90120E52093FD01CA
:102900001092FC011092FA011092F8011092F70156
:102910001092FB012AC022E232E13093F6012093AB
:10292000F50123E02093F90124E62093FD0121E045
:102930002093FC011092FA011092FB0121E030E09B
:1029400040915602509157024954524011F420E0F0
:1029500030E0220F331F220F331F40914802437F84
:10296000242B3093F8012093F7019093C9018093B1
:10297000C8010895EF92FF920F931F93CF93DF93B7
:102980001F92CDB7DEB70EE211E090E1E92EF12CF7
:10299000F80161918F01C70169830E940234698146
:1029A000681719F0C7010E940A34FFEFEF1AFF0AF7
:1029B00084E1E816F10461F700E011E084E1E82E1B
:1029C000F12CF80161918F01C70169830E940234E3
:1029D0006981681719F0C7010E940A34FFEFEF1AE6
:1029E000FF0A84E2E816F10461F70F90DF91CF91BE
:1029F0001F910F91FF90EF9008954091FA0150E0E0
:102A0000440F551FE091F501F091F601E40FF51F19
:102A10002591349153E0359527955A95E1F7237028
:102A200081F16091F7017091F801FB01042E02C061
:102A3000F695E7950A94E2F7E370882321F0EE23F8
:102A400041F02FEF03C0E21719F021E02E0F01C073
:102A500020E030E0042E02C0220F331F0A94E2F778
:102A600083E090E002C0880F991F4A95E2F78095B5
:102A7000909568237923262B372B3093F8012093E8
:102A8000F7010895CF92DF92EF92FF920F931F9379
:102A9000CF93DF936C017A018B01C0E0D0E0CE15BB
:102AA000DF0589F0D8016D918D01D601ED91FC9182
:102AB0000190F081E02DC6010995892B11F47E016A
:102AC00002C02196ECCFC701DF91CF911F910F91EA
:102AD000FF90EF90DF90CF90089520E08DE892E096
:102AE000B22FB111BFEFFC010024B193B193B193A8
:102AF000B1930394D1F70895CF92DF92EF92FF92B2
:102B00000F931F93CF93DF93CDB7DEB72D970FB6FB
:102B1000F894DEBF0FBECDBF7C01162FFC0166818D
:102B2000778142E050E0CE010C960E94F9338D850A
:102B3000612F70E0680F711DCB01880F991F680F1E
:102B4000791FF70180859185680F791F43E050E078
:102B5000CE0109960E94F933C12CD12C00E010E07F
:102B60008A8590E0C816D9068CF58B85B601680F6A
:102B7000711D660F771F660F771FF701828593859A
:102B8000680F791F44E050E0CE0105960E94F933AA
:102B90008D81F70164817581F4E08F9F600D711D57
:102BA000112444E050E0CE0101960E94F9332F81B8
:102BB000898190E0820F911D27FD9A9508171907CA
:102BC0000CF48C018FEFC81AD80ACACFB801110FC4
:102BD000880B990B2D960FB6F894DEBF0FBECDBFB4
:102BE000DF91CF911F910F91FF90EF90DF90CF90E9
:102BF0000895CF92EF920F931F93CF93DF93EC0141
:102C00008091110290911202A0911302B0911402CE
:102C10008F709927AA27BB270797A105B10580F4D4
:102C2000042F862F0E94AE2110E0C12C2AE0E22E54
:102C300020E430E0AC01BE018EEF91E00E94DF1194
:102C4000DF91CF911F910F91EF90CF900895CF9387
:102C5000C62FC095C823C7FF09C08091FA01811112
:102C600002C08091F90181508093FA01C4FF11C024
:102C70008091FA01482F50E02091F90130E0215075
:102C800031094217530711F08F5F01C080E0809334
:102C9000FA01C5FF03C081E00E94FD14C6FF03C016
:102CA00080E00E94FD14C2FF11C08091FA012091C2
:102CB000F5019091F601E22FF92FE80FF11DE80FD1
:102CC000F11D8591949187708093FB01CF910895B8
:102CD0002F923F924F925F926F927F928F929F922C
:102CE000AF92BF92CF92DF92EF92FF920F931F931A
:102CF000CF93DF93CDB7DEB727970FB6F894DEBF3B
:102D00000FBECDBF512C9091F901591608F08BC11F
:102D1000252D30E0220F331FE091F501F091F601EF
:102D2000E20FF31F459154915A834983952F95954E
:102D300095959F7116E0559547951A95E1F7642F83
:102D40006F70D62E49815A8103E0559547950A95B3
:102D5000E1F7742F73707D83772369F04091F70159
:102D60005091F801DA0102C0B695A7952A95E2F7CD
:102D70009D012370D20EA92EB12CF501F595E79592
:102D8000FC83EB834E2E480E8091FA01642C712C4B
:102D900085111EC180919B0681110CC060E087E304
:102DA00092E00E947C1570939A066093990681E0E8
:102DB00080939B062090FD01022C000C3308C1017A
:102DC0009595879500E410E0081B190B109371028C
:102DD00000937002C3012B813C81821B930B909363
:102DE0007302809372023092750220927402B09244
:102DF0007702A0927602200E311E31E0231A3108AC
:102E00003092790220927802A80EB91E41E0A41AED
:102E1000B108B0927B02A0927A0280901102909049
:102E20001202A0901302B0901402C501B401E2E0B6
:102E3000660F771F881F991FEA95D1F72091990691
:102E400030919A06032E000C440B550B0E944A3415
:102E5000D801A61BB70BBF83AE83EE81FF812E1670
:102E60003F06B4F0C12C73018F0120E040E060E721
:102E700072E087E392E00E94400F80919906909162
:102E80009A062E813F81280F391F3F832E83E5CF7D
:102E9000A6E0B0E0A50194010E9437342091990684
:102EA00030919A06032E000C440B550B0E944A34B5
:102EB0002091700230917102A901461B570B5F836C
:102EC0004E838E819F8128163906BCF0C12C730178
:102ED0000E811F8121E040E060E772E087E392E02D
:102EE0000E94400F8091990690919A066E817F8191
:102EF000680F791F7F836E83E4CF409172025091F7
:102F0000730260917002709171028A01910180E7F1
:102F100092E00E94650A40917A0250917B02609192
:102F20007002709171028A01910180E792E00E9423
:102F3000650A9D81992361F1A5E08A229924AA243A
:102F4000BB24D501C40142E0B695A7959795879516
:102F50004A95D1F78D5F882E912C009170021091C7
:102F60007102080D191DC12C730123E040E060E7D8
:102F700072E087E392E00E94400F8101081919096D
:102F800022E040E060E772E087E392E00E94400FB9
:102F900010927102109270021092730210927202DB
:102FA000E0E8F0E0F0937502E093740220E430E092
:102FB00030937702209376024FE750E050937902E6
:102FC000409378026FE370E070937B0260937A0223
:102FD00089819A8135E0959587953A95E1F780FF4B
:102FE0000EC0C12C730100E410E02D2D4091FC01B6
:102FF00060E772E087E392E00E94400F10C08D2DE1
:103000000E94AE21C12C22E1E22E830120E430E0B7
:10301000AC0160E772E08EEF91E00E94DF118B81DE
:10302000840D539470CE27960FB6F894DEBF0FBE72
:10303000CDBFDF91CF911F910F91FF90EF90DF9067
:10304000CF90BF90AF909F908F907F906F905F9048
:103050004F903F902F900895CF93DF9300D000D0F2
:10306000CDB7DEB78091630290916402DC01ED91EF
:10307000FC910084F185E02D20914802213029F453
:1030800046EE50E060E070E004C049E950E060E0E6
:1030900070E049835A836B837C83BE016F5F7F4FEF
:1030A0000995809148028130B1F480916502909138
:1030B0006602DC01ED91FC910084F185E02D4CE489
:1030C00050E060E070E049835A836B837C83BE01EB
:1030D0006F5F7F4F09951092690210926A021092F9
:1030E0006B0210926C028FEF8093580210926F0265
:1030F000109262028091560290915702DC01ED918C
:10310000FC910190F081E02D09958091470281307A
:1031100031F180E48093670280E28093680281E06D
:103120008093620298E090935F0210926002109286
:10313000610210925C0210925B0210925D02809319
:103140005E0240E058E36FEF7FEF409343025093FD
:1031500044026093450270934602809347020F90A9
:103160000F900F900F90DF91CF9108958F929F92C3
:10317000AF92BF92CF92DF92EF92FF920F931F9385
:10318000CF93DF93909158029F3F11F480935802A0
:1031900080914802813009F048C0C0916502D09109
:1031A0006602E0916302F0916402CA80DB80EC80E9
:1031B000FD8082819381A481B581C81AD90AEA0A67
:1031C000FB0A46015701BB0C8808982C5401960154
:1031D000A701682D782D882D982D08E00E94CA350A
:1031E000E3E6AE2EF1E5BF2EC12CD12CE12CF12C63
:1031F00000E010E00E94F534A8EEB3E00E943734FE
:10320000BB2797FDBA95A92F982F872F8093690226
:1032100090936A02A0936B02B0936C02E881F981EB
:103220000680F781E02DCE0109958091630290918F
:103230006402DC01ED91FC910680F781E02D099597
:1032400080914702833009F46AC010926D02809128
:1032500058028230CCF488E78093670294E490931C
:10326000680291E09093620223E020935F02109243
:1032700060021092610210925C0210925B02109246
:103280005D0290935E0246C08230D1F18091480287
:1032900090E0880F991F21E030E040915602509154
:1032A00057024954524011F420E030E0820F931F3E
:1032B0004091690250916A0260916B0270916C02B8
:1032C000880F991F880F991FFC01E050FF4FC080A5
:1032D000D180E280F3804C155D056E057F051CF4FE
:1032E00021E020936F0220916F02222349F0FC011C
:1032F000E050FF4F40835183628373830E94BA146E
:1033000080E1809367028AE08093680282E0809384
:10331000620280EF80936E0283E080934702DF9128
:10332000CF911F910F91FF90EF90DF90CF90BF90C2
:10333000AF909F908F9008954F925F926F927F927F
:103340008F929F92AF92BF92EF92FF920F931F9333
:10335000CF93DF93CDB7DEB760970FB6F894DEBF9B
:103360000FBECDBF7C013B0119821A821B821C82D9
:10337000AE014F5F5F4F83E492E00E94D0244B0187
:103380005C0180E091E0A0E0B0E089839A83AB83A8
:10339000BC83AE014F5F5F4FB30183E492E00E94B4
:1033A000D024BA2CA92C982C882489829A82AB82AA
:1033B000BC82812CADE29A2EA12CB12C8D829E82F2
:1033C000AF82B886B82FA72F962F882789879A872C
:1033D000AB87BC8780E09FE3A0E0B0E08D879E874D
:1033E000AF87B88BBE016F5F7F4FC7010E94482334
:1033F00049855A856B857C8589819A81AB81BC81A1
:103400000D851E852F8538898D809E80AF80B8847C
:103410002A013B01481A590A6A0A7B0A452C562C94
:10342000672C772467FC7A9445284628472881F43E
:1034300028013901481859086A087B08452C562C80
:10344000672C772467FC7A94452846284728E9F0BA
:10345000412E522E632E772467FC7A94252F362F27
:10346000472F552747FD5A95892C9A2CAB2CBB2406
:10347000A7FCBA94692F7A2F8B2F992787FD9A95ED
:103480008201A401C7010E94650A60960FB6F894F4
:10349000DEBF0FBECDBFDF91CF911F910F91FF9087
:1034A000EF90BF90AF909F908F907F906F905F90C4
:1034B0004F900895FC018091F401811103C08FEFBA
:1034C0009FEF08959FB7F89482E08093E9002091E0
:1034D000F20030E01216130614F421E030E021155A
:1034E000310559F0289884E68093F3018091F1002A
:1034F00080838091F200882319F09FBFC90108954D
:103500008BE68093E800F9CF2FB7F89483E080939F
:10351000E9009091E800892F807295FF04C0909196
:10352000F20080E4891B2FBF0895809191068111DC
:103530000DC082E080938D0684E080938E06109209
:10354000900610928F0681E0809391068DE896E0B8
:103550000895CF93DF931F92CDB7DEB76983DC0167
:10356000ED91FC910280F381E02D41E050E0BE013D
:103570006F5F7F4F09950F90DF91CF91089583E0A2
:103580008093E9008091F200882319F08AE3809308
:10359000E8000895FC018485958597FD0BC09FB7D1
:1035A000F89482E08093E9008091F2009FBF90E060
:1035B000019608959FB7F89482E08093E900809186
:1035C000F2009FBF90E00895089580E090E0089594
:1035D0008F929F92AF92BF92CF92DF92EF92FF9223
:1035E0000F931F93CF93DF935C016B017A0180915E
:1035F0001B01882309F45BC08091F401882309F43E
:1036000056C08091F90680FF05C08091E00082607D
:103610008093E000E70110E00AEF83E0882E9AE350
:10362000992E2097D9F10E94841A81110AC0015065
:1036300009F43DC061E070E080E090E00E942A2142
:10364000F0CF282F30E0C217D3070CF48C2F4FB7E0
:10365000F8948092E9009091E80095FF1DC0282F12
:1036600030E0C21BD30BF601982F915020F08191CE
:103670008093F100FACFC20ED31E112319F090925D
:10368000E80009C08091E80085FD06C09092E8003E
:1036900011E0209709F010E04FBFC3CF1111C3CF45
:1036A0005D9884E68093FA061E141F0444F081E0BE
:1036B00090E0F5019383828380E090E001C0C70130
:1036C000DF91CF911F910F91FF90EF90DF90CF90FE
:1036D000BF90AF909F908F9008950E94841A90E0C1
:1036E00008950F931F93CF93DF931F92CDB7DEB74B
:1036F0008C01FC018485958597FF0EC0CE01019653
:103700000E945A1A019719F4298130E002C02FEF64
:103710003FEFF80135872487F801848595850F9060
:10372000DF91CF911F910F910895CF93DF931F9257
:10373000CDB7DEB7FC018485958597FD05C02FEFD9
:103740003FEF358724870BC0CE0101960E945A1A9D
:10375000019719F4898190E002C08FEF9FEF0F90DD
:10376000DF91CF910895DF92EF92FF920F931F9315
:10377000CF93DF93D82E8A017B01E40EF51EEB0177
:10378000CE15DF0571F0D7FE03C0FE01849101C0A4
:1037900088810E94BD2921968111F2CF8FEF9FEF82
:1037A00001C0C801DF91CF911F910F91FF90EF9061
:1037B000DF9008950F931F93CF93DF931F92CDB7A0
:1037C000DEB782E0898342E450E060E672E180E89F
:1037D0000E94B31B0E94951ADC0112960D911C9158
:1037E00013970115110569F0D801ED91FC91028044
:1037F000F381E02DBE016F5F7F4FC801099597FFF0
:1038000007C089810F90DF91CF911F910F9108958B
:10381000F80100851185E5CF1F920F920FB60F9228
:1038200011248F939F938091E1009091E100937F09
:103830009093E10083FF0FC01092E90091E0909314
:10384000EB001092EC0092E39093ED001092F401E3
:1038500098E09093F00082FF20C093E09093E900FD
:103860009091F200992319F09AE39093E8009091D7
:10387000FA06992339F09091FA0691509093FA063E
:10388000992389F19091F301992339F09091F301F3
:1038900091509093F301992341F184FF10C08091DE
:1038A000E2008E7E81608093E2008091E1008F7E55
:1038B0008093E1008091F9068E7E806111C080FFC7
:1038C00016C08091E2008E7E80618093E20080913C
:1038D000E1008E7E8093E1008091F9068E7E81600A
:1038E0008093F90604C05D9ACDCF289AD6CF9F91D8
:1038F0008F910F900FBE0F901F9018951F920F92EF
:103900000FB60F921124CF92DF92EF92FF920F9396
:103910001F932F933F934F935F936F937F938F9357
:103920009F93AF93BF93EF93FF93CF93DF93CDB765
:10393000DEB76C97DEBFCDBF1092E9008091E80042
:1039400083FFEDC168E0CE0145960E94EB2982EF2E
:103950008093E8008D8987FF05C09091E80090FF73
:10396000FCCF03C09EEF9093E800982F907609F06B
:10397000C6C09E892F89188D91110CC0803829F4FA
:103980008091F8068093F10002C01092F10010922D
:10399000F10048C1422F50E0512B913051F4811178
:1039A00041C14130510509F03DC18091F8068D7F3C
:1039B0000BC0933061F4811135C14130510509F0DC
:1039C00031C18091F80682608093F8062BC1953052
:1039D00041F48091E80080FFFCCF20682093E30051
:1039E00021C1963009F05FC0EB8CFC8C1092E9008D
:1039F0001092F6061092F506123091F51092F40628
:103A00001092F3060E94DA1B99E0BE016F5F7F4FB0
:103A1000DB01E92F1D92EA95E9F799831A8391E07A
:103A20009E8390EA98879AEF99872091F5063091C6
:103A3000F606275F3F4F3C832B838D831092E9006E
:103A40001092F6061092F506F092F406E092F30654
:103A500049E050E080E00E94B31B0E94DA1BE2C004
:103A6000F092F406E092F3060E94951ADC01129699
:103A7000ED90FC901397E114F10409F4C0C0D70154
:103A8000ED91FC910480F581E02DBE016B5E7F4FCE
:103A9000C7010995009719F00CF0C4C0C7C0F70121
:103AA000E084F184E8CF973009F4C0C0983021F465
:103AB00081E08093F100B6C0993009F0B3C0837003
:103AC00009F0B4C0EDE9F1E081E021E036E3908156
:103AD000992361F08093E9002093EB0091919093FA
:103AE000EC003093ED008F5F873089F78EE780938D
:103AF000EA001092EA008F898093F40193C08B8DC5
:103B00009C8D1092E9001092F6061092F5069093A3
:103B1000F4068093F306898D811156C08E899D89A4
:103B2000913A59F4813209F081C047E050E064E1F4
:103B300071E080E00E94B31B75C0913209F076C03D
:103B4000833289F4888D90E0982F88272F89822BE3
:103B5000A0E0B0E08093100190931101A0931201B6
:103B6000B09313015FC0803269F48091E80082FF56
:103B7000FCCF67E084E191E00E94EB298BEF80931A
:103B8000E80006C0823209F04DC08F8980931B0186
:103B90008091F706882319F0EEEFFAE002C0E0E02A
:103BA000F8E08091140190911501A0911601B09157
:103BB0001701803B9440A105B10509F07BC08091BD
:103BC0001B0180FF93C076C00E94951ADC011296FB
:103BD0000D911C9113970115110541F1D801ED913B
:103BE000FC910190F081E02DBE016B5E7F4FC8011A
:103BF0000995811117C0F80100851185ECCF1130AE
:103C000009F44EC0133091F48F89882309F445C01C
:103C1000823081F440E867E084EC92E10E946033F6
:103C2000882321F08EEF8093E80079C081E28093B1
:103C3000EB0075C0813029F440E86BE088EB92E13D
:103C4000EDCF833099F70E94951ADC011296ED9022
:103C5000FC9013978E010F5F1F4F6801E114F10470
:103C600079F0D701ED91FC910680F781E02DB80144
:103C7000C7010995080F111DF701E084F184EECF0B
:103C8000D8011C92F60101900020E9F73197BF019D
:103C90006C197D0940E0C601C1CF62EA72E102C041
:103CA00066EA72E16115710509F2FB01449150E089
:103CB00080E840CF0FB6F894A895809160008861A5
:103CC00080936000109260000FBEA895EE3F2AE03E
:103CD000F20739F08091FE0A9091FF0A9183808368
:103CE000A1CF1092FF0A1092FE0A9CCFEE3F8AE00D
:103CF000F80731F0808191819093FF0A8093FE0A4A
:103D000087E797E7918380839BE088E10FB6F8947B
:103D1000A895809360000FBE9093600083CF6C964F
:103D20000FB6F894DEBF0FBECDBFDF91CF91FF91EC
:103D3000EF91BF91AF919F918F917F916F915F9123
:103D40004F913F912F911F910F91FF90EF90DF9036
:103D5000CF900F900FBE0F901F9018953FB7F8941B
:103D60008091110790911207A0911307B091140749
:103D700026B5A89B05C02F3F19F00196A11DB11DC6
:103D80003FBFBA2FA92F982F8827820F911DA11D01
:103D9000B11DBC01CD0142E0660F771F881F991F3E
:103DA0004A95D1F708950E9437376F927F928F928C
:103DB0009F92AF92BF92CF92EF92FF920F931F9379
:103DC000CF93DF935C014B01FC01A281B38110977B
:103DD00009F445C0058110E07801F594E7943701B6
:103DE000F0E86F0E711CFA0120813181428153810C
:103DF0000E94423428EE33E040E050E00E94183444
:103E0000AAE0B0E00E943734BB2797FDBA95A92FEE
:103E1000982F872F919581959109B8010E949F3421
:103E2000EC01C05CDF4FEC16FD061CF4C01BD10B8F
:103E3000FACFF501E4800E2C000CFF08C12C8E0196
:103E4000268140E0B4018FE192E00E94400FF5012D
:103E50008581C80FD11DC615D7055CF30EC0FC01C6
:103E6000E4800E2C000CFF08C12C00E410E0268139
:103E700040E08FE192E00E94400FDF91CF911F91CF
:103E80000F91FF90EF90CF90BF90AF909F908F9049
:103E90007F906F9008958F929F92AF92BF92CF9232
:103EA000DF92EF92FF920F931F93CF93DF9300D097
:103EB00000D0CDB7DEB77C016B01FC01A281B381DC
:103EC000FA0120813181428153810E94423428EEDF
:103ED00033E040E050E00E941834AAE0B0E00E94D5
:103EE0003734BB2797FDBA95A92F982F872F919527
:103EF00081959109F7016681062E000C770B0E94CF
:103F00009F345C014C01F0E48F169104ACF4F7018E
:103F10000581002E000C110B2481022E000C330BA6
:103F2000A401B601C7010E94E128F7018681880E2D
:103F3000911C87FD9A94E7CFF7018681A81AB108F2
:103F400087FDB394F70105812481F1ECAF16FFEFF3
:103F5000BF0664F0002E000C110B022E000C330B78
:103F6000A501B601C7010E94E128E6CF622F022E0B
:103F7000000C770BCB01800F911D07FD9A95AC01CA
:103F80005595479529830A834B83460F571F5595AF
:103F900047954C83CE0101967C015E0195E0A90E08
:103FA000B11CF70141917F01042E000C550B8A01D1
:103FB0002FE730E060E070E0C6010E94650AEA1475
:103FC000FB0479F70F900F900F900F90DF91CF9136
:103FD0001F910F91FF90EF90DF90CF90BF90AF9027
:103FE0009F908F900895362F90E0FC01EF58FC4E83
:103FF0004491FC01ED5FFE4F2491FC01E05DFE4F1A
:104000008491882309F451C04423E1F150E0FA017E
:104010003197EF30F105B0F5EA5AFF4F0C94B33405
:10402000909180009F7707C0909180009F7D03C092
:1040300090918000977F9093800024C094B59F77E3
:1040400002C094B59F7D94BD1DC0909190009F7754
:1040500007C0909190009F7D03C090919000977F42
:10406000909390000FC09091C0009F7703C09091F3
:10407000C0009F7D9093C00005C09091C200977FC3
:104080009093C200E82FF0E0EE0FFF1FEE5DFE4FB1
:10409000A591B4918FB7F894EC91311103C020959C
:1040A0002E2301C02E2B2C938FBF0895CF93DF9327
:1040B00090E0FC01ED5FFE4F2491FC01E05DFE4FBE
:1040C0008491882361F190E0880F991FFC01E851E9
:1040D000FF4FC591D491FC01EE5DFE4FA591B491C7
:1040E000611109C09FB7F894888120958223888345
:1040F000EC912E230BC0623061F49FB7F8943881A5
:10410000822F809583238883EC912E2B2C939FBF45
:1041100006C08FB7F894E8812E2B28838FBFDF91DC
:10412000CF9108951F93CF93DF93182FEB0161E098
:104130000E945620209711F460E004C0CF3FD105C3
:1041400039F461E0812FDF91CF911F910C94F31F1F
:10415000E12FF0E0EF58FC4EE4914E2F50E0FA01D1
:104160003197EF30F10508F06CC0EB59FF4F0C941C
:10417000B33484B5806884BDC7BD68C084B580622F
:1041800084BDC8BD63C0809180008068809380003A
:10419000D0938900C093880059C0809180008062CC
:1041A00080938000D0938B00C0938A004FC0809191
:1041B0008000886080938000D0938D00C0938C0035
:1041C00045C080919000806880939000D0939900C2
:1041D000C09398003BC080919000806280939000D3
:1041E000D0939B00C0939A0031C08091900088606A
:1041F00080939000D0939D00C0939C0027C0809135
:10420000C00080688093C0008091C0008F7B809345
:10421000C000C093CF001AC08091C000806280931C
:10422000C000C093D00012C08091C200886080930B
:10423000C2008091C2008B7F8093C200C093D200E5
:1042400005C0C038D1050CF07CCF76CFDF91CF917F
:104250001F9108958F929F92AF92BF92CF92DF925B
:10426000EF92FF926B017C010E94AE1E4B015C013C
:10427000C114D104E104F104F1F00E94AE1EDC018E
:10428000CB0188199909AA09BB09883E9340A10569
:10429000B10570F321E0C21AD108E108F10888EEF7
:1042A000880E83E0981EA11CB11CC114D104E10446
:1042B000F10419F7DDCFFF90EF90DF90CF90BF9022
:1042C000AF909F908F9008951F920F920FB60F920C
:1042D00011242F933F938F939F93AF93BF9380911C
:1042E000A4019091A501A091A601B091A7013091E0
:1042F000100723E0230F2D3720F40196A11DB11DD7
:1043000005C026E8230F0296A11DB11D20931007BA
:104310008093A4019093A501A093A601B093A70157
:104320008091110790911207A0911307B091140783
:104330000196A11DB11D8093110790931207A093C0
:104340001307B0931407BF91AF919F918F913F9145
:104350002F910F900FBE0F901F901895CF93DF9362
:10436000880F990BFC01EE5FFD4E65917491EB0196
:10437000CD2FDD27C695C695C695772762537D4E0E
:10438000AE0188EA91E00E94F933C855DE4F1882E9
:1043900088EA91E0DF91CF9108958FB12CB193B16C
:1043A00030E02095309520743327A90123E05595FE
:1043B00047952A95E1F7292F30E020953095207117
:1043C00033273595279535952795242B8095807F24
:1043D000822B08951F920F920FB60F9211242F93E4
:1043E0003F934F935F936F937F938F939F93AF937D
:1043F000BF93CF93DF93EF93FF9380910F078823B1
:1044000049F080910E07E0910C07F0910D07908123
:104410008927808380910B07882309F4B9C0809194
:10442000070790910807A0910907B0910A07892B07
:104430008A2B8B2B09F4ACC0809107079091080759
:10444000A0910907B0910A070197A109B1098093CA
:10445000070790930807A0930907B0930A07892BD1
:104460008A2B8B2B09F094C0A0910007B091010713
:10447000C0910C07D0910D07E0910507F091060758
:104480009F012F5F3F4F30930607209305078491CC
:10449000982F907F903859F58F70E82FF0E0E45313
:1044A000FD4EE491E13089F0E33031F710920F07CF
:1044B00090910E078881282F30E0892F90E0809519
:1044C0009095822393238883D7CF80916F008D7F2F
:1044D00080936F00909102078C91282F30E0892FF4
:1044E00090E080959095822393238C93C5CF90394B
:1044F00041F43296F0930607E0930507F901249101
:10450000BBCF903E29F41092060710920507B4CF56
:10451000903F19F410920B073BC097FDADCF329638
:10452000F0930607E0930507F901249130E0382B5A
:10453000A0910307B09104070E946C346C507E4F29
:104540008F4F9F4F28EE33E040E050E00E944A3406
:1045500020930707309308074093090750930A07F1
:104560008091070790910807A0910907B0910A0769
:10457000892B8A2B8B2B61F481E090E0A0E0B0E0E6
:104580008093070790930807A0930907B0930A0741
:10459000FF91EF91DF91CF91BF91AF919F918F915B
:1045A0007F916F915F914F913F912F910F900FBE2F
:1045B0000F901F9018951F920F920FB60F92112413
:1045C0002F933F938F939F93AF93BF93EF93FF935B
:1045D0008091FF06E0910007F0910107882309F41C
:1045E00045C08091FB069091FC06A091FD06B0911C
:1045F000FE06892B8A2B8B2B31F18091020790814B
:10460000892780838091FB069091FC06A091FD068E
:10461000B091FE06181619061A061B0664F580915D
:10462000FB069091FC06A091FD06B091FE06019755
:10463000A109B1098093FB069093FC06A093FD06A7
:10464000B093FE0618C01092FF0680916F008D7F18
:1046500080936F00909102078081282F30E0892F8E
:1046600090E0809590958223932304C08091020767
:10467000908189278083FF91EF91BF91AF919F91A6
:104680008F913F912F910F900FBE0F901F90189513
:104690002F923F924F925F926F927F928F929F9252
:1046A000AF92BF92CF92DF92EF92FF920F931F9340
:1046B000CF93DF93CDB7DEB76C970FB6F894DEBF1C
:1046C0000FBECDBFFB01DC014D915C911197052E12
:1046D000000C660B770B4424542E652E762E18960C
:1046E0008D919C911997092E000CAA0BBB0BEE24FF
:1046F000F82E092F1A2FE98AFA8A0B8B1C8B00815E
:104700001181228133810D871E872F87388B0415F5
:1047100015052605370564F089899A89AB89BC8916
:1047200080179107A207B30734F004E0902E05C06C
:104730009924939402C012E0912EE084F1840285C2
:104740001385ED8AFE8A0F8B188FE414F504060595
:10475000170564F029893A894B895C892E153F0534
:104760004007510734F0B4E08B2E05C088248394B1
:1047700002C0A2E08A2E892D8370882189F01082E0
:104780001182128213821482158216821782108679
:104790001186128613861486158616861786E7C03C
:1047A0008D899E89AF89B88DED84FE840F85188927
:1047B0008E199F09A00BB10B89879A87AB87BC879D
:1047C00084859585A685B7854481558166817781E5
:1047D000E984FA840B851C85EF28E02AE12A29F474
:1047E000882D8929837059F6C2C01F01841B950B3F
:1047F000A60BB70B6C017D01FF0CCC08DC2C7601FD
:104800009C01AD016C2D7C2D8C2D9C2D08E00E940F
:10481000CA35E984FA840B851C85110FEE08FE2C3D
:104820008701E98EFA8E0B8F1C8FA984BA84CB8402
:10483000DC84E98CFE2C0E2D1E2D0E94F5346901BE
:104840007A0104E0901609F447C02D853E854F8516
:10485000588924153505460557053CF4D1014D927C
:104860005D926D927C9213970AC009891A892B89EF
:104870003C89D1010D931D932D933C931397F10126
:1048800080819181A281B3810D891E892F89388D04
:10489000081B190B2A0B3B0B0D831E832F833887B4
:1048A000C982DA82EB82FC82BE016B5F7F4FCE0150
:1048B00001960E94A229F10184859585A685B78578
:1048C00049815A816B817C81841B950BA60BB70BA8
:1048D00084839583A683B783F4E08F1609F447C0D9
:1048E000F10180859185A285B38584159505A6057E
:1048F000B7052CF4408651866286738608C0098904
:104900001A892B893C890087118722873387F10117
:1049100080859185A285B3854081518162817381B3
:10492000841B950BA60BB70B8D839E83AF83B88733
:10493000C982DA82EB82FC82BE016B5F7F4FCE01BF
:1049400001960E94A229D10114964D915D916D911D
:104950007C91179789819A81AB81BC81840F951FC7
:10496000A61FB71FF10184879587A687B7876C9626
:104970000FB6F894DEBF0FBECDBFDF91CF911F9170
:104980000F91FF90EF90DF90CF90BF90AF909F90EE
:104990008F907F906F905F904F903F902F900895F1
:1049A0004F925F926F927F928F929F92AF92BF923F
:1049B000CF92DF92EF92FF920F93CF93DF93CDB719
:1049C000DEB728970FB6F894DEBF0FBECDBF7C01CF
:1049D0006B01FA01608171818281938120E830E06E
:1049E00040E050E00E94B93408E00E94E33529011C
:1049F0003A01F3EB4F0E511C611C711C4D825E821B
:104A00006F827886F6014081518162817381F7015E
:104A100080819181A281B3819A01AB01281B390B5E
:104A20004A0B5B0BAAE0B0E00E94373469837A83BB
:104A30008B839C83BE016B5F7F4FCE0101960E94EA
:104A4000A22989819A81AB81BC81905CAF4FBF4F15
:104A5000692F7A2F8B2F992787FD9A9528960FB665
:104A6000F894DEBF0FBECDBFDF91CF910F91FF90C5
:104A7000EF90DF90CF90BF90AF909F908F907F90FE
:104A80006F905F904F900895CF93DF93DB011A965C
:104A90004D915D916D917C911D971F962C911F9763
:104AA00077FD18C0421B5109610971094038510551
:104AB000610571057CF42D913C911197FC01C08139
:104AC000D18168817981E901EA81FB81CD01DF91A2
:104AD000CF910994DF91CF9108950895DA01F901FA
:104AE000623061F01CF4613031F00895633051F0B0
:104AF000643059F008958C91815002C08C918F5F81
:104B00008C9308958081815002C080818F5F808363
:104B10000895CF93DF93EC016F81662389F08D8137
:104B20008E5F8D839E8189175CF01D829E012C5FB4
:104B30003F4FAE014D5F5F4FCE010E946E251F8239
:104B4000DF91CF910895FF920F931F93CF93DF933F
:104B500000D0CDB7DEB7FC01878181113FC08381D2
:104B60008A8384818983813021F08FEF860F8230A0
:104B7000A8F1F62E8F019E012F5F3F4FAE014E5FD1
:104B80005F4FCF010E946E252A81233038F589813D
:104B9000833020F5022E000C330B93E08902200DA8
:104BA000311D1124822F880F280F89E591E0A8E894
:104BB000B7E004C0B595A795979587952A95D2F744
:104BC0008770873059F0F801F7826DEF6F0D623012
:104BD00010F086E001C085E0F80186830F900F9009
:104BE000DF91CF911F910F91FF900895FC011282E8
:104BF00081E0838384831582168217820895FC01E5
:104C00008481811105C08281181614F48FEF84838A
:104C10000895FC018481811105C08281853014F4DE
:104C200081E084830895FC018481882351F093817D
:104C30009E5F938397302CF09281890F8283138239
:104C400014820895FC01138212821482089562E096
:104C50000C94A32561E00C94A32564E00C94A32597
:104C600063E00C94A3250F931F93FC0187818111AE
:104C70001EC024818381082E000C990B03E02002C2
:104C8000800D911D1124982F990F980F49E551E03F
:104C900068E877E08A019B0104C035952795179550
:104CA00007959A95D2F7D901C801877001C08FEF97
:104CB0001F910F91089508950895FC0124812111F9
:104CC00002C0828108958FEF08956F927F928F9234
:104CD0009F92AF92BF92CF92EF92FF920F931F934A
:104CE000CF93DF93EC015B013A01C12C79018A017A
:104CF00020E047E08BE292E00E94400F8B81082E7B
:104D0000000C990B019726E0289F8001299F100D28
:104D10001124060D171D2C81022E000C330B21507F
:104D2000310945E0429FC001439F900D1124E80ED8
:104D3000F91E8F81823099F044F48130D9F48D814D
:104D4000081B110987FD139515C0833071F084305D
:104D500089F48D81E80EF11C87FDFA940BC08D81DA
:104D6000080F111D87FD1A9505C08D81E81AF108FD
:104D700087FDF394C12C21E047E0B5018BE292E07E
:104D80000E94400FDF91CF911F910F91FF90EF9004
:104D9000CF90BF90AF909F908F907F906F9008952D
:104DA0006F927F928F929F92AF92BF92CF92DF923B
:104DB000EF92FF920F931F93CF93DF933C01EB0190
:104DC0004A0159018091110290911202A09113029F
:104DD000B0911402B695A79597958795282F2370C3
:104DE000D22EC12C75018A0128E046E08BE292E0C8
:104DF0000E94400FF301828185304CF4ED18F108D8
:104E000026E046E0BE018BE292E00E94400FF301F3
:104E10008281181664F47501ED0CF11CC12C84011B
:104E200027E046E0BE018BE292E00E94400FC40101
:104E3000049799838883C50103979B838A8388E0BD
:104E400090E09D838C8387E090E09F838E83C401F4
:104E5000039699878887C50103969B878A87F30104
:104E60008481882329F093818902A00CB11C11242C
:104E7000C12C75018401F301228146E0BE018BE261
:104E800092E00E94400FF30184818823F1F0228197
:104E9000253054F42F5FF7E0EF1AF10846E0BE0129
:104EA0008BE292E00E94400FF301228112166CF413
:104EB0007501F7E0EF0EF11C2150C12C840146E092
:104EC000BE018BE292E00E94400F198218821B8281
:104ED0001A8280E890E09D838C8380E490E09F8339
:104EE0008E838FE790E0998788878FE390E09B8798
:104EF0008A87DF91CF911F910F91FF90EF90DF9004
:104F0000CF90BF90AF909F908F907F906F900895BB
:104F1000FC01EC5BFF4F8081813011F081E08083E8
:104F200008958F929F92BF92CF92DF92EF92FF925D
:104F30000F931F93CF93DF9300D000D0CDB7DEB790
:104F40008C010C5B1F4FD8012C91261709F465C00A
:104F5000B62E4C01B2E06B1739F0E3E06E135BC084
:104F6000DC0195961C9257C0DC015096ED91FC91A6
:104F700051979F012A5F3F4F81E04389548942172F
:104F8000530709F480E0880F90E09C012F5F3F4FAA
:104F9000F901E057FC4EE4914E2F50E060E070E0E4
:104FA000FC01E057FC4EE491CE2ED12CE12CF12CEB
:104FB000C416D506E606F706DCF49A01AB012C19F7
:104FC0003D094E095F0969F029833A834B835C836D
:104FD0000E94EB3329813A814B815C810E94183415
:104FE00003C060E070E0CB01C60ED71EE81EF91EBC
:104FF000F401EE5BFF4F2AE02C9DC0012D9D900D2A
:1050000011249183808381E0F40185A38289853016
:1050100014F48F5F828BF801B0820F900F900F9085
:105020000F90DF91CF911F910F91FF90EF90DF9044
:10503000CF90BF909F908F90089562E00C9491273D
:105040008F929F92AF92BF92CF92DF92EF92FF9298
:105050000F931F93CF93DF93EC018B01E889F989BC
:1050600000A0F1A1E02D21E042815381648175818E
:105070008A819B81AC81BD8184179507A607B707FC
:105080000CF420E07E0184E4E80EF11CF70180813D
:10509000823019F08330C9F069C0FE01EE5BFF4F2A
:1050A00080819181801B910B211105C0980135955C
:1050B0002795821B930B91838083808191811816A1
:1050C00019060CF453C063E04EC08A89853031F470
:1050D00061E08C8989300CF44CC048C0222331F146
:1050E0004D895E896F89788D452F562F672F7727D9
:1050F00067FD7A954132FCE15F07D0F1483E2CE133
:10510000520758F440525C416A01D694C794D69431
:10511000C794C114D10461F115C0485E5C41569535
:1051200047956A0182E3C80ED11C0CC08C89181601
:10513000FCF4E8E78E02C001112464E270E00E94F2
:105140008B346B010E94EB3324E630E040E050E00A
:105150000E9418344601A12CB12C681579058A05E6
:105160009B0534F462E0CE010E94912760E001C00B
:1051700061E0CE010E943B0A8EA1811106C0F701B9
:105180008081843011F084E08083B801CE01DF910A
:10519000CF911F910F91FF90EF90DF90CF90BF9034
:1051A000AF909F908F900C942C0CCF93DF93EC01D9
:1051B0000E94F509CC5BDF4F81E08883DF91CF91BE
:1051C00008954F925F926F927F928F929F92AF92CB
:1051D000BF92CF92DF92EF92FF920F931F93CF93E4
:1051E000DF93CDB7DEB760970FB6F894DEBF0FBE82
:1051F000CDBF6B017801CA01550FAA0BBB0B662707
:10520000782F892F9A2F4B015C0140E4940EA11C4A
:10521000B11C89829A82AB82BC828901330F220B36
:10522000330B322F212F102F00270D831E832F8346
:10523000388720E433E040E050E00E94B93408E0D1
:105240000E94E33529013A0180E4580E611C711C6B
:1052500049865A866B867C86C701FF0CAA0BBB0B5E
:10526000BA2FA92F982F88278D879E87AF87B88B55
:10527000BE016F5F7F4FC6010E94482349855A8552
:105280006B857C8589819A81AB81BC814D845E84EC
:105290006F8478888D809E80AF80B8848A019B015E
:1052A000081B190B2A0B3B0B012F122F232F33271F
:1052B00027FD3A95012B022B032B81F493018201E8
:1052C000081919092A093B09012F122F232F332707
:1052D00027FD3A95012B022B032BE9F0452C562C88
:1052E000672C772467FC7A94252F362F472F552774
:1052F00047FD5A95892C9A2CAB2CBB24A7FCBA9459
:10530000692F7A2F8B2F992787FD9A958201A40107
:10531000C6010E94650A60960FB6F894DEBF0FBE04
:10532000CDBFDF91CF911F910F91FF90EF90DF9054
:10533000CF90BF90AF909F908F907F906F905F9035
:105340004F9008950F93CF93DF93EC01FB01688199
:1053500079818A819B8120813181428153810E94A0
:10536000B93408E00E94E335288339834A835B839C
:10537000CE01DF91CF910F9108954091F5065091A4
:10538000F6062091F3063091F40642175307B4F461
:105390009091E8009570E1F39091E80092FD19C0BA
:1053A0008093F1008091F5069091F60601968F7337
:1053B0009927892B19F48EEF8093E8008091F506E8
:1053C0009091F60601969093F6068093F50681E09B
:1053D000089580E00895615030F02091F100FC01C3
:1053E00020830196F8CF289884E68093F3010895EE
:1053F000CF93DF93CDB7DEB72E970FB6F894DEBF0D
:105400000FBECDBF789484B5826084BD84B58160C1
:1054100084BD85B5826085BD85B5816085BD80917F
:105420006E00816080936E001092810080918100F7
:1054300082608093810080918100816080938100EF
:1054400080918000816080938000809191008260D3
:105450008093910080919100816080939100809170
:1054600090008160809390008091C100846080935F
:10547000C1008091C10082608093C1008091C10011
:1054800081608093C1008091C30081608093C300DC
:105490008091C00082608093C0008091C2008160D2
:1054A0008093C20080917A00846080937A0080911A
:1054B0007A00826080937A0080917A008160809384
:1054C0007A0080917A00806880937A001092F401CB
:1054D0001092F8061092F9068091D70081608093AF
:1054E000D70080EA8093D80089B5806189BD89B5ED
:1054F000826089BD09B400FEFDCF61E070E080E00C
:1055000090E00E942A218091D8008F7C8061809356
:10551000D8008091E000807F8093E0008091E100DE
:105520008E7E8093E1008DE08093E200559A209A70
:10553000EEEFFFE7859194918B3F9C4D19F481E04C
:105540008093F7069E012F5F3F4F790100E110E045
:105550002B87FC86C8010E940234D7018D937D0100
:105560000F5F1F4F04311105A9F789819A81AB8123
:10557000BC8181309444AB44BE4419F00E94BA14FB
:105580000FC080E0E82E81E0F82EC8010E940234AE
:10559000D7018D937D010F5F1F4F04321105A9F7CD
:1055A0001FB7F8948091CA01811127C0E1E4F1E0AE
:1055B0008491E4E1F1E09491E82FF0E0EE0FFF1F19
:1055C000E851FF4FA591B491EC91E92321F461E0FA
:1055D00081E10E94F31F61E081E10E9456208CB5B9
:1055E00080618CBD8CB580648CBD61E08FE00E94D1
:1055F000562061E080E10E9456208091CA018F5FB1
:105600008093CA011FBF0FE411E0F80184910E5F7F
:105610001F4F31966491882319F00E945620F5CFD0
:1056200061E086E00E94F31F61E070E080E090E0BE
:105630000E942A2160E086E00E94F31F6AE070E089
:1056400080E090E00E942A2161E086E00E94F31F42
:10565000ECE3F1E0E491F0E0EE0FFF1FEE5DFE4FB2
:10566000859194919093D0018093CF01EFE0F1E088
:10567000E491E093CE01E4E3F1E0E491F0E0EE0F99
:10568000FF1FEE5DFE4F859194919093CD01809325
:10569000CC01E7E0F1E0E491E093CB018CB58C7FA5
:1056A0008CBD8DB581608DBDE091CF01F091D001B1
:1056B00090818091CE01982B9083A091CC01B091E4
:1056C000CD012C919091CB01909592239C93908148
:1056D000809589238083E6EFF0E001E0E330F00776
:1056E00049F084918EBD00000DB407FEFDCF8EB54C
:1056F0003196F3CFE091CC01F091CD019081809172
:10570000CB01892B8083E091CF01F091D001908172
:105710008091CE018095892380838091640081608F
:105720008093640080916400826080936400809123
:10573000640080688093640080916400806480933A
:105740006400809165008160809365000E94CD2196
:1057500087FF1AC080E094E01EBC00000DB407FE75
:10576000FDCF2EB50197C1F760E070E08AE00E949E
:10577000922060E070E08BE00E94922060E070E098
:1057800089E00E949220FFCF8EE180937F0211E298
:10579000109382020E946D151092D2011092D101D5
:1057A000109211021092120210921302109214021F
:1057B00067EC7EE08FE192E00E94191366E679E0E3
:1057C0008BE292E00E94191362E775E087E392E0B2
:1057D0000E94191382E691E090930B0280930A02D3
:1057E0008AE580930C0284E080930E0287E0809328
:1057F0000F028BE280930D02109310026CEB71E0AC
:105800008EEF91E00E9419138DE892E090937D0253
:1058100080937C0280E880937E0210927102109245
:105820007002109273021092720280E890E09093DE
:1058300075028093740280E490E0909377028093E5
:1058400076028FE790E090937902809378028FE35D
:1058500090E090937B0280937A0281E090E00E9436
:1058600065147AE0472E512C612C712C2FB7F894D7
:105870008091A4019091A501A091A601B091A701EA
:105880002FBF20918B02222391F020918302182FA9
:10589000121B10938C0220918002309181022F5FA5
:1058A0003F4F309381022093800210928B024091EF
:1058B0008702509188026091890270918A02841750
:1058C0009507A607B7077CF4481B423008F492C539
:1058D00083B7817F83BF83B7816083BF889583B798
:1058E0008E7F83BF87C520918202AC01BD01420F2C
:1058F000511D611D711D4093870250938802609372
:10590000890270938A028093830290938402A09309
:105910008502B0938602FF24F394F0928B020E94DA
:105920006D156091D2016093D1016D870E94CD21E8
:10593000082F8093D2018091C8019091C9016D8593
:105940008230910509F45DC0B4F4019709F02EC5C9
:10595000C12CE12CF12C00E010E024E040E060E7F5
:1059600072E087E392E00E94400F57E3A52EB12C2E
:1059700069E0F62E08C08330910509F4AEC00497A3
:1059800009F4FFC413C58F2D0E94AE2185010D526D
:105990001109CC24C39449E0E42E9501AC0160E7E1
:1059A00072E08EEF91E00E94DF11F3942AE0A20EE4
:1059B000B11C3CE0F312E7CF8CE00E94AE21CC2476
:1059C000CA9432E2E32E00E410E020E430E0AC01BF
:1059D00060E772E08EEF91E00E94DF1140E36DE03E
:1059E00080E792E00E94F9158091D1018095909115
:1059F000D201892309F4DAC482E090E00E946514A0
:105A0000D5C4802F0E94271680E00E9468168091DE
:105A1000FB018130E9F48091F7019091F801282F82
:105A20002370209348029695879596958795837065
:105A300019F08EE492E002C089E492E0909357025C
:105A4000809356020E942C1883E090E00E94651417
:105A5000E091F7011E2F137087E00E94AE21E0E174
:105A6000F2E18591949121E0113009F020E0A92F15
:105A7000A695A695A695A9871A8649855A8548555B
:105A80005E4FE12FF0E0EE0FFF1F8091F701909144
:105A9000F80196958795969587958370E80FF11D87
:105AA000EE0FFF1FEE0FFF1FE050FF4F608171816F
:105AB000828193810E94ED13CC24CA9402E2E02EED
:105AC00000E410E020E430E048EA51E060E772E0F2
:105AD0008EEF91E00E94DF1169C42091470280910E
